{
  "_format": "hh-sol-artifact-1",
  "contractName": "BatchNFTs",
  "sourceName": "contracts/BatchNFTs.sol",
  "abi": [
    {
      "inputs": [
        {
          "internalType": "uint256",
          "name": "_startTime",
          "type": "uint256"
        },
        {
          "internalType": "bool",
          "name": "_paused",
          "type": "bool"
        }
      ],
      "stateMutability": "nonpayable",
      "type": "constructor"
    },
    {
      "inputs": [],
      "name": "ApprovalCallerNotOwnerNorApproved",
      "type": "error"
    },
    {
      "inputs": [],
      "name": "ApprovalQueryForNonexistentToken",
      "type": "error"
    },
    {
      "inputs": [],
      "name": "BalanceQueryForZeroAddress",
      "type": "error"
    },
    {
      "inputs": [],
      "name": "MintERC2309QuantityExceedsLimit",
      "type": "error"
    },
    {
      "inputs": [],
      "name": "MintToZeroAddress",
      "type": "error"
    },
    {
      "inputs": [],
      "name": "MintZeroQuantity",
      "type": "error"
    },
    {
      "inputs": [],
      "name": "OwnerQueryForNonexistentToken",
      "type": "error"
    },
    {
      "inputs": [],
      "name": "OwnershipNotInitializedForExtraData",
      "type": "error"
    },
    {
      "inputs": [],
      "name": "TransferCallerNotOwnerNorApproved",
      "type": "error"
    },
    {
      "inputs": [],
      "name": "TransferFromIncorrectOwner",
      "type": "error"
    },
    {
      "inputs": [],
      "name": "TransferToNonERC721ReceiverImplementer",
      "type": "error"
    },
    {
      "inputs": [],
      "name": "TransferToZeroAddress",
      "type": "error"
    },
    {
      "inputs": [],
      "name": "URIQueryForNonexistentToken",
      "type": "error"
    },
    {
      "anonymous": false,
      "inputs": [
        {
          "indexed": true,
          "internalType": "address",
          "name": "owner",
          "type": "address"
        },
        {
          "indexed": true,
          "internalType": "address",
          "name": "approved",
          "type": "address"
        },
        {
          "indexed": true,
          "internalType": "uint256",
          "name": "tokenId",
          "type": "uint256"
        }
      ],
      "name": "Approval",
      "type": "event"
    },
    {
      "anonymous": false,
      "inputs": [
        {
          "indexed": true,
          "internalType": "address",
          "name": "owner",
          "type": "address"
        },
        {
          "indexed": true,
          "internalType": "address",
          "name": "operator",
          "type": "address"
        },
        {
          "indexed": false,
          "internalType": "bool",
          "name": "approved",
          "type": "bool"
        }
      ],
      "name": "ApprovalForAll",
      "type": "event"
    },
    {
      "anonymous": false,
      "inputs": [
        {
          "indexed": true,
          "internalType": "uint256",
          "name": "fromTokenId",
          "type": "uint256"
        },
        {
          "indexed": false,
          "internalType": "uint256",
          "name": "toTokenId",
          "type": "uint256"
        },
        {
          "indexed": true,
          "internalType": "address",
          "name": "from",
          "type": "address"
        },
        {
          "indexed": true,
          "internalType": "address",
          "name": "to",
          "type": "address"
        }
      ],
      "name": "ConsecutiveTransfer",
      "type": "event"
    },
    {
      "anonymous": false,
      "inputs": [
        {
          "indexed": true,
          "internalType": "address",
          "name": "previousOwner",
          "type": "address"
        },
        {
          "indexed": true,
          "internalType": "address",
          "name": "newOwner",
          "type": "address"
        }
      ],
      "name": "OwnershipTransferred",
      "type": "event"
    },
    {
      "anonymous": false,
      "inputs": [
        {
          "indexed": true,
          "internalType": "address",
          "name": "from",
          "type": "address"
        },
        {
          "indexed": true,
          "internalType": "address",
          "name": "to",
          "type": "address"
        },
        {
          "indexed": true,
          "internalType": "uint256",
          "name": "tokenId",
          "type": "uint256"
        }
      ],
      "name": "Transfer",
      "type": "event"
    },
    {
      "inputs": [],
      "name": "MAX_SUPPLY",
      "outputs": [
        {
          "internalType": "uint256",
          "name": "",
          "type": "uint256"
        }
      ],
      "stateMutability": "view",
      "type": "function"
    },
    {
      "inputs": [],
      "name": "PRICE_PER_TOKEN",
      "outputs": [
        {
          "internalType": "uint256",
          "name": "",
          "type": "uint256"
        }
      ],
      "stateMutability": "view",
      "type": "function"
    },
    {
      "inputs": [],
      "name": "START_TIME",
      "outputs": [
        {
          "internalType": "uint256",
          "name": "",
          "type": "uint256"
        }
      ],
      "stateMutability": "view",
      "type": "function"
    },
    {
      "inputs": [
        {
          "internalType": "address",
          "name": "to",
          "type": "address"
        },
        {
          "internalType": "uint256",
          "name": "tokenId",
          "type": "uint256"
        }
      ],
      "name": "approve",
      "outputs": [],
      "stateMutability": "payable",
      "type": "function"
    },
    {
      "inputs": [
        {
          "internalType": "address",
          "name": "owner",
          "type": "address"
        }
      ],
      "name": "balanceOf",
      "outputs": [
        {
          "internalType": "uint256",
          "name": "",
          "type": "uint256"
        }
      ],
      "stateMutability": "view",
      "type": "function"
    },
    {
      "inputs": [
        {
          "internalType": "uint256",
          "name": "tokenId",
          "type": "uint256"
        }
      ],
      "name": "getApproved",
      "outputs": [
        {
          "internalType": "address",
          "name": "",
          "type": "address"
        }
      ],
      "stateMutability": "view",
      "type": "function"
    },
    {
      "inputs": [
        {
          "internalType": "address",
          "name": "owner",
          "type": "address"
        },
        {
          "internalType": "address",
          "name": "operator",
          "type": "address"
        }
      ],
      "name": "isApprovedForAll",
      "outputs": [
        {
          "internalType": "bool",
          "name": "",
          "type": "bool"
        }
      ],
      "stateMutability": "view",
      "type": "function"
    },
    {
      "inputs": [],
      "name": "maxMintPerUser",
      "outputs": [
        {
          "internalType": "uint256",
          "name": "",
          "type": "uint256"
        }
      ],
      "stateMutability": "view",
      "type": "function"
    },
    {
      "inputs": [
        {
          "internalType": "address",
          "name": "to",
          "type": "address"
        },
        {
          "internalType": "uint256",
          "name": "quantity",
          "type": "uint256"
        }
      ],
      "name": "mint",
      "outputs": [],
      "stateMutability": "payable",
      "type": "function"
    },
    {
      "inputs": [],
      "name": "mintPaused",
      "outputs": [
        {
          "internalType": "bool",
          "name": "",
          "type": "bool"
        }
      ],
      "stateMutability": "view",
      "type": "function"
    },
    {
      "inputs": [],
      "name": "name",
      "outputs": [
        {
          "internalType": "string",
          "name": "",
          "type": "string"
        }
      ],
      "stateMutability": "view",
      "type": "function"
    },
    {
      "inputs": [],
      "name": "owner",
      "outputs": [
        {
          "internalType": "address",
          "name": "",
          "type": "address"
        }
      ],
      "stateMutability": "view",
      "type": "function"
    },
    {
      "inputs": [
        {
          "internalType": "uint256",
          "name": "tokenId",
          "type": "uint256"
        }
      ],
      "name": "ownerOf",
      "outputs": [
        {
          "internalType": "address",
          "name": "",
          "type": "address"
        }
      ],
      "stateMutability": "view",
      "type": "function"
    },
    {
      "inputs": [
        {
          "internalType": "bool",
          "name": "_paused",
          "type": "bool"
        }
      ],
      "name": "pauseMint",
      "outputs": [],
      "stateMutability": "nonpayable",
      "type": "function"
    },
    {
      "inputs": [],
      "name": "renounceOwnership",
      "outputs": [],
      "stateMutability": "nonpayable",
      "type": "function"
    },
    {
      "inputs": [
        {
          "internalType": "address",
          "name": "from",
          "type": "address"
        },
        {
          "internalType": "address",
          "name": "to",
          "type": "address"
        },
        {
          "internalType": "uint256",
          "name": "tokenId",
          "type": "uint256"
        }
      ],
      "name": "safeTransferFrom",
      "outputs": [],
      "stateMutability": "payable",
      "type": "function"
    },
    {
      "inputs": [
        {
          "internalType": "address",
          "name": "from",
          "type": "address"
        },
        {
          "internalType": "address",
          "name": "to",
          "type": "address"
        },
        {
          "internalType": "uint256",
          "name": "tokenId",
          "type": "uint256"
        },
        {
          "internalType": "bytes",
          "name": "_data",
          "type": "bytes"
        }
      ],
      "name": "safeTransferFrom",
      "outputs": [],
      "stateMutability": "payable",
      "type": "function"
    },
    {
      "inputs": [
        {
          "internalType": "address",
          "name": "operator",
          "type": "address"
        },
        {
          "internalType": "bool",
          "name": "approved",
          "type": "bool"
        }
      ],
      "name": "setApprovalForAll",
      "outputs": [],
      "stateMutability": "nonpayable",
      "type": "function"
    },
    {
      "inputs": [
        {
          "internalType": "string",
          "name": "baseURI",
          "type": "string"
        }
      ],
      "name": "setBaseURI",
      "outputs": [],
      "stateMutability": "nonpayable",
      "type": "function"
    },
    {
      "inputs": [
        {
          "internalType": "bytes4",
          "name": "interfaceId",
          "type": "bytes4"
        }
      ],
      "name": "supportsInterface",
      "outputs": [
        {
          "internalType": "bool",
          "name": "",
          "type": "bool"
        }
      ],
      "stateMutability": "view",
      "type": "function"
    },
    {
      "inputs": [],
      "name": "symbol",
      "outputs": [
        {
          "internalType": "string",
          "name": "",
          "type": "string"
        }
      ],
      "stateMutability": "view",
      "type": "function"
    },
    {
      "inputs": [
        {
          "internalType": "uint256",
          "name": "tokenId",
          "type": "uint256"
        }
      ],
      "name": "tokenURI",
      "outputs": [
        {
          "internalType": "string",
          "name": "",
          "type": "string"
        }
      ],
      "stateMutability": "view",
      "type": "function"
    },
    {
      "inputs": [],
      "name": "totalSupply",
      "outputs": [
        {
          "internalType": "uint256",
          "name": "",
          "type": "uint256"
        }
      ],
      "stateMutability": "view",
      "type": "function"
    },
    {
      "inputs": [
        {
          "internalType": "address",
          "name": "from",
          "type": "address"
        },
        {
          "internalType": "address",
          "name": "to",
          "type": "address"
        },
        {
          "internalType": "uint256",
          "name": "tokenId",
          "type": "uint256"
        }
      ],
      "name": "transferFrom",
      "outputs": [],
      "stateMutability": "payable",
      "type": "function"
    },
    {
      "inputs": [
        {
          "internalType": "address",
          "name": "newOwner",
          "type": "address"
        }
      ],
      "name": "transferOwnership",
      "outputs": [],
      "stateMutability": "nonpayable",
      "type": "function"
    },
    {
      "inputs": [],
      "name": "withdraw",
      "outputs": [],
      "stateMutability": "nonpayable",
      "type": "function"
    }
  ],
  "bytecode": "0x60a06040523480156200001157600080fd5b50604051620019583803806200195883398101604081905262000034916200012b565b6040518060400160405280600c81526020016b45524337323141204672656560a01b8152506040518060400160405280600981526020016837323141204672656560b81b815250620000956200008f620000d760201b60201c565b620000db565b6003620000a3838262000207565b506004620000b2828262000207565b50600060015550506080919091526009805460ff1916911515919091179055620002d3565b3390565b600080546001600160a01b038381166001600160a01b0319831681178455604051919092169283917f8be0079c531659141344cd1fd0a4f28419497f9722a3daafe3b4186f6b6457e09190a35050565b600080604083850312156200013f57600080fd5b82519150602083015180151581146200015757600080fd5b809150509250929050565b634e487b7160e01b600052604160045260246000fd5b600181811c908216806200018d57607f821691505b602082108103620001ae57634e487b7160e01b600052602260045260246000fd5b50919050565b601f8211156200020257600081815260208120601f850160051c81016020861015620001dd5750805b601f850160051c820191505b81811015620001fe57828155600101620001e9565b5050505b505050565b81516001600160401b0381111562000223576200022362000162565b6200023b8162000234845462000178565b84620001b4565b602080601f8311600181146200027357600084156200025a5750858301515b600019600386901b1c1916600185901b178555620001fe565b600085815260208120601f198616915b82811015620002a45788860151825594840194600190910190840162000283565b5085821015620002c35787850151600019600388901b60f8161c191681555b5050505050600190811b01905550565b608051611662620002f660003960008181610401015261092a01526116626000f3fe6080604052600436106101815760003560e01c8063715018a6116100d1578063b88d4fde1161008a578063ddaa26ad11610064578063ddaa26ad146103ef578063e985e9c514610423578063f2fde38b14610443578063f30e6e771461046357600080fd5b8063b88d4fde146103a7578063c87b56dd146103ba578063d304c4bc146103da57600080fd5b8063715018a6146103105780637e4831d314610325578063833b94991461033f5780638da5cb5b1461035457806395d89b4114610372578063a22cb4651461038757600080fd5b806332cb6b0c1161013e57806342842e0e1161011857806342842e0e1461029d57806355f804b3146102b05780636352211e146102d057806370a08231146102f057600080fd5b806332cb6b0c146102605780633ccfd60b1461027557806340c10f191461028a57600080fd5b806301ffc9a71461018657806306fdde03146101bb578063081812fc146101dd578063095ea7b31461021557806318160ddd1461022a57806323b872dd1461024d575b600080fd5b34801561019257600080fd5b506101a66101a13660046110ca565b610483565b60405190151581526020015b60405180910390f35b3480156101c757600080fd5b506101d06104d5565b6040516101b29190611137565b3480156101e957600080fd5b506101fd6101f836600461114a565b610567565b6040516001600160a01b0390911681526020016101b2565b61022861022336600461117f565b6105ab565b005b34801561023657600080fd5b50600254600154035b6040519081526020016101b2565b61022861025b3660046111a9565b61064b565b34801561026c57600080fd5b5061023f606481565b34801561028157600080fd5b506102286107e4565b61022861029836600461117f565b61087e565b6102286102ab3660046111a9565b610a3d565b3480156102bc57600080fd5b506102286102cb3660046111e5565b610a5d565b3480156102dc57600080fd5b506101fd6102eb36600461114a565b610a72565b3480156102fc57600080fd5b5061023f61030b366004611257565b610a7d565b34801561031c57600080fd5b50610228610acc565b34801561033157600080fd5b506009546101a69060ff1681565b34801561034b57600080fd5b5061023f600081565b34801561036057600080fd5b506000546001600160a01b03166101fd565b34801561037e57600080fd5b506101d0610ae0565b34801561039357600080fd5b506102286103a2366004611282565b610aef565b6102286103b53660046112cb565b610b5b565b3480156103c657600080fd5b506101d06103d536600461114a565b610ba5565b3480156103e657600080fd5b5061023f600381565b3480156103fb57600080fd5b5061023f7f000000000000000000000000000000000000000000000000000000000000000081565b34801561042f57600080fd5b506101a661043e3660046113a7565b610c29565b34801561044f57600080fd5b5061022861045e366004611257565b610c57565b34801561046f57600080fd5b5061022861047e3660046113d1565b610ccd565b60006301ffc9a760e01b6001600160e01b0319831614806104b457506380ac58cd60e01b6001600160e01b03198316145b806104cf5750635b5e139f60e01b6001600160e01b03198316145b92915050565b6060600380546104e4906113ec565b80601f0160208091040260200160405190810160405280929190818152602001828054610510906113ec565b801561055d5780601f106105325761010080835404028352916020019161055d565b820191906000526020600020905b81548152906001019060200180831161054057829003601f168201915b5050505050905090565b600061057282610d2e565b61058f576040516333d1c03960e21b815260040160405180910390fd5b506000908152600760205260409020546001600160a01b031690565b60006105b682610a72565b9050336001600160a01b038216146105ef576105d28133610c29565b6105ef576040516367d9dca160e11b815260040160405180910390fd5b60008281526007602052604080822080546001600160a01b0319166001600160a01b0387811691821790925591518593918516917f8c5be1e5ebec7d5bd14f71427d1e84f3dd0314c0f7b2291e5b200ac8c7c3b92591a4505050565b600061065682610d56565b9050836001600160a01b0316816001600160a01b0316146106895760405162a1148160e81b815260040160405180910390fd5b60008281526007602052604090208054338082146001600160a01b038816909114176106d6576106b98633610c29565b6106d657604051632ce44b5f60e11b815260040160405180910390fd5b6001600160a01b0385166106fd57604051633a954ecd60e21b815260040160405180910390fd5b801561070857600082555b6001600160a01b038681166000908152600660205260408082208054600019019055918716808252919020805460010190554260a01b17600160e11b17600085815260056020526040812091909155600160e11b8416900361079a576001840160008181526005602052604081205490036107985760015481146107985760008181526005602052604090208490555b505b83856001600160a01b0316876001600160a01b03167fddf252ad1be2c89b69c2b068fc378daa952ba7f163c4a11628f55a4df523b3ef60405160405180910390a45b505050505050565b6107ec610dbd565b604051600090339047908381818185875af1925050503d806000811461082e576040519150601f19603f3d011682016040523d82523d6000602084013e610833565b606091505b505090508061087b5760405162461bcd60e51b815260206004820152600f60248201526e151c985b9cd9995c8811985a5b1959608a1b60448201526064015b60405180910390fd5b50565b60095460ff16156108c25760405162461bcd60e51b815260206004820152600e60248201526d135a5b9d081a5cc81c185d5cd95960921b6044820152606401610872565b3360009081526006602052604090819020546003916108ed9184911c67ffffffffffffffff1661143c565b11156109285760405162461bcd60e51b815260206004820152600a602482015269135a5b9d08131a5b5a5d60b21b6044820152606401610872565b7f000000000000000000000000000000000000000000000000000000000000000042101561098b5760405162461bcd60e51b815260206004820152601060248201526f14d85b19481b9bdd081cdd185c9d195960821b6044820152606401610872565b60648161099760015490565b6109a1919061143c565b11156109e05760405162461bcd60e51b815260206004820152600e60248201526d13585e0814dd5c1c1b1e48121a5d60921b6044820152606401610872565b6109eb60008261144f565b341015610a2f5760405162461bcd60e51b8152602060048201526012602482015271496e73756666696369656e742046756e647360701b6044820152606401610872565b610a398282610e17565b5050565b610a5883838360405180602001604052806000815250610b5b565b505050565b610a65610dbd565b600a610a588284836114ac565b60006104cf82610d56565b60006001600160a01b038216610aa6576040516323d3ad8160e21b815260040160405180910390fd5b506001600160a01b031660009081526006602052604090205467ffffffffffffffff1690565b610ad4610dbd565b610ade6000610f15565b565b6060600480546104e4906113ec565b3360008181526008602090815260408083206001600160a01b03871680855290835292819020805460ff191686151590811790915590519081529192917f17307eab39ab6107e8899845ad3d59bd9653f200f220920489ca2b5937696c31910160405180910390a35050565b610b6684848461064b565b6001600160a01b0383163b15610b9f57610b8284848484610f65565b610b9f576040516368d2bf6b60e11b815260040160405180910390fd5b50505050565b6060610bb082610d2e565b610bcd57604051630a14c4b560e41b815260040160405180910390fd5b6000610bd7611050565b90508051600003610bf75760405180602001604052806000815250610c22565b80610c0184611070565b604051602001610c1292919061156d565b6040516020818303038152906040525b9392505050565b6001600160a01b03918216600090815260086020908152604080832093909416825291909152205460ff1690565b610c5f610dbd565b6001600160a01b038116610cc45760405162461bcd60e51b815260206004820152602660248201527f4f776e61626c653a206e6577206f776e657220697320746865207a65726f206160448201526564647265737360d01b6064820152608401610872565b61087b81610f15565b610cd5610dbd565b60095460ff1615610d1b5760405162461bcd60e51b815260206004820152601060248201526f21b7b73a3930b1ba103830bab9b2b21760811b6044820152606401610872565b6009805460ff1916911515919091179055565b6000600154821080156104cf575050600090815260056020526040902054600160e01b161590565b600081600154811015610da45760008181526005602052604081205490600160e01b82169003610da2575b80600003610c22575060001901600081815260056020526040902054610d81565b505b604051636f96cda160e11b815260040160405180910390fd5b6000546001600160a01b03163314610ade5760405162461bcd60e51b815260206004820181905260248201527f4f776e61626c653a2063616c6c6572206973206e6f7420746865206f776e65726044820152606401610872565b6001546000829003610e3c5760405163b562e8dd60e01b815260040160405180910390fd5b6001600160a01b03831660008181526006602090815260408083208054680100000000000000018802019055848352600590915281206001851460e11b4260a01b178317905582840190839083907fddf252ad1be2c89b69c2b068fc378daa952ba7f163c4a11628f55a4df523b3ef8180a4600183015b818114610eeb57808360007fddf252ad1be2c89b69c2b068fc378daa952ba7f163c4a11628f55a4df523b3ef600080a4600101610eb3565b5081600003610f0c57604051622e076360e81b815260040160405180910390fd5b60015550505050565b600080546001600160a01b038381166001600160a01b0319831681178455604051919092169283917f8be0079c531659141344cd1fd0a4f28419497f9722a3daafe3b4186f6b6457e09190a35050565b604051630a85bd0160e11b81526000906001600160a01b0385169063150b7a0290610f9a90339089908890889060040161159c565b6020604051808303816000875af1925050508015610fd5575060408051601f3d908101601f19168201909252610fd2918101906115d9565b60015b611033573d808015611003576040519150601f19603f3d011682016040523d82523d6000602084013e611008565b606091505b50805160000361102b576040516368d2bf6b60e11b815260040160405180910390fd5b805181602001fd5b6001600160e01b031916630a85bd0160e11b149050949350505050565b60606040518060600160405280603681526020016115f760369139905090565b606060a06040510180604052602081039150506000815280825b600183039250600a81066030018353600a90048061108a5750819003601f19909101908152919050565b6001600160e01b03198116811461087b57600080fd5b6000602082840312156110dc57600080fd5b8135610c22816110b4565b60005b838110156111025781810151838201526020016110ea565b50506000910152565b600081518084526111238160208601602086016110e7565b601f01601f19169290920160200192915050565b602081526000610c22602083018461110b565b60006020828403121561115c57600080fd5b5035919050565b80356001600160a01b038116811461117a57600080fd5b919050565b6000806040838503121561119257600080fd5b61119b83611163565b946020939093013593505050565b6000806000606084860312156111be57600080fd5b6111c784611163565b92506111d560208501611163565b9150604084013590509250925092565b600080602083850312156111f857600080fd5b823567ffffffffffffffff8082111561121057600080fd5b818501915085601f83011261122457600080fd5b81358181111561123357600080fd5b86602082850101111561124557600080fd5b60209290920196919550909350505050565b60006020828403121561126957600080fd5b610c2282611163565b8035801515811461117a57600080fd5b6000806040838503121561129557600080fd5b61129e83611163565b91506112ac60208401611272565b90509250929050565b634e487b7160e01b600052604160045260246000fd5b600080600080608085870312156112e157600080fd5b6112ea85611163565b93506112f860208601611163565b925060408501359150606085013567ffffffffffffffff8082111561131c57600080fd5b818701915087601f83011261133057600080fd5b813581811115611342576113426112b5565b604051601f8201601f19908116603f0116810190838211818310171561136a5761136a6112b5565b816040528281528a602084870101111561138357600080fd5b82602086016020830137600060208483010152809550505050505092959194509250565b600080604083850312156113ba57600080fd5b6113c383611163565b91506112ac60208401611163565b6000602082840312156113e357600080fd5b610c2282611272565b600181811c9082168061140057607f821691505b60208210810361142057634e487b7160e01b600052602260045260246000fd5b50919050565b634e487b7160e01b600052601160045260246000fd5b808201808211156104cf576104cf611426565b80820281158282048414176104cf576104cf611426565b601f821115610a5857600081815260208120601f850160051c8101602086101561148d5750805b601f850160051c820191505b818110156107dc57828155600101611499565b67ffffffffffffffff8311156114c4576114c46112b5565b6114d8836114d283546113ec565b83611466565b6000601f84116001811461150c57600085156114f45750838201355b600019600387901b1c1916600186901b178355611566565b600083815260209020601f19861690835b8281101561153d578685013582556020948501946001909201910161151d565b508682101561155a5760001960f88860031b161c19848701351681555b505060018560011b0183555b5050505050565b6000835161157f8184602088016110e7565b8351908301906115938183602088016110e7565b01949350505050565b6001600160a01b03858116825284166020820152604081018390526080606082018190526000906115cf9083018461110b565b9695505050505050565b6000602082840312156115eb57600080fd5b8151610c22816110b456fe697066733a2f2f516d546332366b5a6f52367754726262556a4c6f4a4b704243325a524e70564855755075795568535a33456753542fa2646970667358221220d41147ecc272f9d793fd580524dccb7cf219bace2e9573767ac5bd7812effa8c64736f6c63430008110033",
  "linkReferences": {},
  "deployedLinkReferences": {}
}